{
  "_format": "hh-sol-artifact-1",
  "contractName": "GameShop",
  "sourceName": "contracts/GameShop.sol",
  "abi": [
    {
      "inputs": [
        {
          "internalType": "address",
          "name": "_roleManager",
          "type": "address"
        },
        {
          "internalType": "address",
          "name": "_treasury",
          "type": "address"
        },
        {
          "internalType": "address",
          "name": "_archeryItems",
          "type": "address"
        }
      ],
      "stateMutability": "nonpayable",
      "type": "constructor"
    },
    {
      "inputs": [],
      "name": "ContractPaused",
      "type": "error"
    },
    {
      "inputs": [
        {
          "internalType": "uint256",
          "name": "required",
          "type": "uint256"
        },
        {
          "internalType": "uint256",
          "name": "provided",
          "type": "uint256"
        }
      ],
      "name": "InsufficientFunds",
      "type": "error"
    },
    {
      "inputs": [],
      "name": "InvalidSKU",
      "type": "error"
    },
    {
      "inputs": [],
      "name": "ReentrancyGuardReentrantCall",
      "type": "error"
    },
    {
      "inputs": [
        {
          "internalType": "uint256",
          "name": "requested",
          "type": "uint256"
        },
        {
          "internalType": "uint256",
          "name": "remaining",
          "type": "uint256"
        }
      ],
      "name": "SupplyExceeded",
      "type": "error"
    },
    {
      "inputs": [],
      "name": "Unauthorized",
      "type": "error"
    },
    {
      "anonymous": false,
      "inputs": [
        {
          "indexed": true,
          "internalType": "uint256",
          "name": "skuId",
          "type": "uint256"
        },
        {
          "indexed": false,
          "internalType": "uint256",
          "name": "price",
          "type": "uint256"
        },
        {
          "indexed": false,
          "internalType": "uint256",
          "name": "maxSupply",
          "type": "uint256"
        },
        {
          "indexed": false,
          "internalType": "bool",
          "name": "active",
          "type": "bool"
        }
      ],
      "name": "CatalogUpdated",
      "type": "event"
    },
    {
      "anonymous": false,
      "inputs": [
        {
          "indexed": true,
          "internalType": "address",
          "name": "buyer",
          "type": "address"
        },
        {
          "indexed": true,
          "internalType": "uint256",
          "name": "skuId",
          "type": "uint256"
        },
        {
          "indexed": false,
          "internalType": "uint256",
          "name": "qty",
          "type": "uint256"
        },
        {
          "indexed": false,
          "internalType": "uint256",
          "name": "price",
          "type": "uint256"
        }
      ],
      "name": "ItemPurchased",
      "type": "event"
    },
    {
      "inputs": [],
      "name": "archeryItems",
      "outputs": [
        {
          "internalType": "contract ArcheryItems1155",
          "name": "",
          "type": "address"
        }
      ],
      "stateMutability": "view",
      "type": "function"
    },
    {
      "inputs": [
        {
          "internalType": "uint256",
          "name": "skuId",
          "type": "uint256"
        },
        {
          "internalType": "uint256",
          "name": "quantity",
          "type": "uint256"
        }
      ],
      "name": "buyItem",
      "outputs": [],
      "stateMutability": "payable",
      "type": "function"
    },
    {
      "inputs": [
        {
          "internalType": "uint256",
          "name": "skuId",
          "type": "uint256"
        }
      ],
      "name": "getItemInfo",
      "outputs": [
        {
          "internalType": "uint256",
          "name": "price",
          "type": "uint256"
        },
        {
          "internalType": "uint256",
          "name": "supply",
          "type": "uint256"
        },
        {
          "internalType": "uint256",
          "name": "maxSupply",
          "type": "uint256"
        },
        {
          "internalType": "bool",
          "name": "active",
          "type": "bool"
        }
      ],
      "stateMutability": "view",
      "type": "function"
    },
    {
      "inputs": [],
      "name": "roleManager",
      "outputs": [
        {
          "internalType": "contract RoleManager",
          "name": "",
          "type": "address"
        }
      ],
      "stateMutability": "view",
      "type": "function"
    },
    {
      "inputs": [
        {
          "internalType": "uint256",
          "name": "",
          "type": "uint256"
        }
      ],
      "name": "shopCatalog",
      "outputs": [
        {
          "internalType": "uint256",
          "name": "price",
          "type": "uint256"
        },
        {
          "internalType": "uint256",
          "name": "maxSupply",
          "type": "uint256"
        },
        {
          "internalType": "uint256",
          "name": "currentSupply",
          "type": "uint256"
        },
        {
          "internalType": "bool",
          "name": "active",
          "type": "bool"
        }
      ],
      "stateMutability": "view",
      "type": "function"
    },
    {
      "inputs": [],
      "name": "treasury",
      "outputs": [
        {
          "internalType": "contract Treasury",
          "name": "",
          "type": "address"
        }
      ],
      "stateMutability": "view",
      "type": "function"
    },
    {
      "inputs": [
        {
          "internalType": "uint256",
          "name": "skuId",
          "type": "uint256"
        },
        {
          "internalType": "uint256",
          "name": "price",
          "type": "uint256"
        },
        {
          "internalType": "uint256",
          "name": "maxSupply",
          "type": "uint256"
        },
        {
          "internalType": "bool",
          "name": "active",
          "type": "bool"
        }
      ],
      "name": "updateItem",
      "outputs": [],
      "stateMutability": "nonpayable",
      "type": "function"
    }
  ],
  "bytecode": "0x60e060405234801561000f575f80fd5b5060405161098538038061098583398101604081905261002e9161008a565b60017f9b779b17422d0df92223018b32b4d1fa46e071723d6817e2486d003becc55f00556001600160a01b0392831660805290821660a0521660c0526100ca565b80516001600160a01b0381168114610085575f80fd5b919050565b5f805f6060848603121561009c575f80fd5b6100a58461006f565b92506100b36020850161006f565b91506100c16040850161006f565b90509250925092565b60805160a05160c0516108706101155f395f818160d201526105e101525f8181610126015261054601525f81816082015281816102250152818161025401526103c401526108705ff3fe60806040526004361061006d575f3560e01c806361d027b31161004c57806361d027b314610115578063753f422f146101485780639979c009146101ad578063de7fe3e7146101c0575f80fd5b8062435da51461007157806331338b23146100c15780635278af55146100f4575b5f80fd5b34801561007c575f80fd5b506100a47f000000000000000000000000000000000000000000000000000000000000000081565b6040516001600160a01b0390911681526020015b60405180910390f35b3480156100cc575f80fd5b506100a47f000000000000000000000000000000000000000000000000000000000000000081565b3480156100ff575f80fd5b5061011361010e366004610735565b610223565b005b348015610120575f80fd5b506100a47f000000000000000000000000000000000000000000000000000000000000000081565b348015610153575f80fd5b5061018b610162366004610773565b5f6020819052908152604090208054600182015460028301546003909301549192909160ff1684565b60408051948552602085019390935291830152151560608201526080016100b8565b6101136101bb36600461078a565b6103c2565b3480156101cb575f80fd5b5061018b6101da366004610773565b5f9081526020818152604091829020825160808101845281548082526001830154938201849052600283015494820185905260039092015460ff16151560609091018190529093565b7f00000000000000000000000000000000000000000000000000000000000000006001600160a01b03166391d148547f00000000000000000000000000000000000000000000000000000000000000006001600160a01b031663a217fddf6040518163ffffffff1660e01b8152600401602060405180830381865afa1580156102ae573d5f803e3d5ffd5b505050506040513d601f19601f820116820180604052508101906102d291906107aa565b6040516001600160e01b031960e084901b1681526004810191909152336024820152604401602060405180830381865afa158015610312573d5f803e3d5ffd5b505050506040513d601f19601f8201168201806040525081019061033691906107c1565b610352576040516282b42960e81b815260040160405180910390fd5b5f848152602081815260409182902085815560018101859055600301805484151560ff199091168117909155825186815291820185905281830152905185917f5b57f896b7fb85a79f60348c8793491c748ebd0c38bdde14bcebb91b19de1350919081900360600190a250505050565b7f00000000000000000000000000000000000000000000000000000000000000006001600160a01b0316635c975abb6040518163ffffffff1660e01b8152600401602060405180830381865afa15801561041e573d5f803e3d5ffd5b505050506040513d601f19601f8201168201806040525081019061044291906107c1565b156104605760405163ab35696f60e01b815260040160405180910390fd5b6104686106b3565b5f828152602081905260409020600381015460ff1661049a576040516318e287df60e21b815260040160405180910390fd5b80600101548282600201546104af91906107f7565b11156104f15781816002015482600101546104ca9190610810565b6040516339da97c960e21b8152600481019290925260248201526044015b60405180910390fd5b80545f90610500908490610823565b905080341461052a5760405162fae2d560e21b8152600481018290523460248201526044016104e8565b82826002015f82825461053d91906107f7565b925050819055507f00000000000000000000000000000000000000000000000000000000000000006001600160a01b031663d0e30db0346040518263ffffffff1660e01b81526004015f604051808303818588803b15801561059d575f80fd5b505af11580156105af573d5f803e3d5ffd5b505060405163731133e960e01b81523360048201526024810188905260448101879052608060648201525f60848201527f00000000000000000000000000000000000000000000000000000000000000006001600160a01b0316935063731133e9925060a40190505f604051808303815f87803b15801561062e575f80fd5b505af1158015610640573d5f803e3d5ffd5b505083546040805187815260208101929092528793503392507f2ff487d8fb1812f5d8a4602a340c48ce2d129f0ba25d788a2796fcdbcff930f6910160405180910390a350506106af60017f9b779b17422d0df92223018b32b4d1fa46e071723d6817e2486d003becc55f0055565b5050565b6106bb6106e1565b60027f9b779b17422d0df92223018b32b4d1fa46e071723d6817e2486d003becc55f0055565b7f9b779b17422d0df92223018b32b4d1fa46e071723d6817e2486d003becc55f005460020361072357604051633ee5aeb560e01b815260040160405180910390fd5b565b8015158114610732575f80fd5b50565b5f805f8060808587031215610748575f80fd5b843593506020850135925060408501359150606085013561076881610725565b939692955090935050565b5f60208284031215610783575f80fd5b5035919050565b5f806040838503121561079b575f80fd5b50508035926020909101359150565b5f602082840312156107ba575f80fd5b5051919050565b5f602082840312156107d1575f80fd5b81516107dc81610725565b9392505050565b634e487b7160e01b5f52601160045260245ffd5b8082018082111561080a5761080a6107e3565b92915050565b8181038181111561080a5761080a6107e3565b808202811582820484141761080a5761080a6107e356fea2646970667358221220d48c588c1321db33a182336a6f3431b3951f2f2cb9346483b8d2daecfce4d51b64736f6c63430008180033",
  "linkReferences": {},
  "deployedLinkReferences": {}
}