{
  "_format": "hh-sol-artifact-1",
  "contractName": "Treasury",
  "sourceName": "contracts/Treasury.sol",
  "abi": [
    {
      "inputs": [
        {
          "internalType": "address",
          "name": "_roleManager",
          "type": "address"
        },
        {
          "internalType": "address payable",
          "name": "_multisigWallet",
          "type": "address"
        }
      ],
      "stateMutability": "nonpayable",
      "type": "constructor"
    },
    {
      "inputs": [],
      "name": "ReentrancyGuardReentrantCall",
      "type": "error"
    },
    {
      "inputs": [],
      "name": "TransferFailed",
      "type": "error"
    },
    {
      "inputs": [],
      "name": "Unauthorized",
      "type": "error"
    },
    {
      "anonymous": false,
      "inputs": [
        {
          "indexed": true,
          "internalType": "address",
          "name": "oldWallet",
          "type": "address"
        },
        {
          "indexed": true,
          "internalType": "address",
          "name": "newWallet",
          "type": "address"
        }
      ],
      "name": "MultisigUpdated",
      "type": "event"
    },
    {
      "anonymous": false,
      "inputs": [
        {
          "indexed": true,
          "internalType": "address",
          "name": "sender",
          "type": "address"
        },
        {
          "indexed": false,
          "internalType": "uint256",
          "name": "amount",
          "type": "uint256"
        }
      ],
      "name": "TreasuryDeposit",
      "type": "event"
    },
    {
      "anonymous": false,
      "inputs": [
        {
          "indexed": true,
          "internalType": "address",
          "name": "admin",
          "type": "address"
        },
        {
          "indexed": false,
          "internalType": "uint256",
          "name": "amount",
          "type": "uint256"
        }
      ],
      "name": "TreasuryWithdraw",
      "type": "event"
    },
    {
      "inputs": [],
      "name": "deposit",
      "outputs": [],
      "stateMutability": "payable",
      "type": "function"
    },
    {
      "inputs": [],
      "name": "multisigWallet",
      "outputs": [
        {
          "internalType": "address payable",
          "name": "",
          "type": "address"
        }
      ],
      "stateMutability": "view",
      "type": "function"
    },
    {
      "inputs": [],
      "name": "roleManager",
      "outputs": [
        {
          "internalType": "contract RoleManager",
          "name": "",
          "type": "address"
        }
      ],
      "stateMutability": "view",
      "type": "function"
    },
    {
      "inputs": [
        {
          "internalType": "address payable",
          "name": "_newWallet",
          "type": "address"
        }
      ],
      "name": "setMultisigWallet",
      "outputs": [],
      "stateMutability": "nonpayable",
      "type": "function"
    },
    {
      "inputs": [
        {
          "internalType": "uint256",
          "name": "amount",
          "type": "uint256"
        }
      ],
      "name": "withdraw",
      "outputs": [],
      "stateMutability": "nonpayable",
      "type": "function"
    },
    {
      "stateMutability": "payable",
      "type": "receive"
    }
  ],
  "bytecode": "0x60a060405234801561000f575f80fd5b5060405161072638038061072683398101604081905261002e91610090565b60017f9b779b17422d0df92223018b32b4d1fa46e071723d6817e2486d003becc55f00556001600160a01b039182166080525f80546001600160a01b031916919092161790556100c8565b6001600160a01b038116811461008d575f80fd5b50565b5f80604083850312156100a1575f80fd5b82516100ac81610079565b60208401519092506100bd81610079565b809150509250929050565b60805161062b6100fb5f395f8181609c0152818161014a015281816101790152818161034c015261037b015261062b5ff3fe60806040526004361061004b575f3560e01c8062435da51461008b5780632e1a7d4d146100da57806364913477146100fb5780639075becf1461011a578063d0e30db014610138575f80fd5b366100875760405134815233907fe3407208b14fa025330ca187030f118a1c0cdb604aba93ba45c862e6095aee279060200160405180910390a2005b5f80fd5b348015610096575f80fd5b506100be7f000000000000000000000000000000000000000000000000000000000000000081565b6040516001600160a01b03909116815260200160405180910390f35b3480156100e5575f80fd5b506100f96100f436600461057b565b610140565b005b348015610106575f80fd5b506100f9610115366004610592565b61034a565b348015610125575f80fd5b505f546100be906001600160a01b031681565b6100f96104d2565b610148610509565b7f00000000000000000000000000000000000000000000000000000000000000006001600160a01b03166391d148547f00000000000000000000000000000000000000000000000000000000000000006001600160a01b031663a217fddf6040518163ffffffff1660e01b8152600401602060405180830381865afa1580156101d3573d5f803e3d5ffd5b505050506040513d601f19601f820116820180604052508101906101f791906105bf565b6040516001600160e01b031960e084901b1681526004810191909152336024820152604401602060405180830381865afa158015610237573d5f803e3d5ffd5b505050506040513d601f19601f8201168201806040525081019061025b91906105d6565b610277576040516282b42960e81b815260040160405180910390fd5b5f80546040516001600160a01b039091169083908381818185875af1925050503d805f81146102c1576040519150601f19603f3d011682016040523d82523d5f602084013e6102c6565b606091505b50509050806102e8576040516312171d8360e31b815260040160405180910390fd5b60405182815233907fdab9e1269b4840c2a5e425eceb614f788c03c0706647b9b6c96bb18b23d64dba9060200160405180910390a25061034760017f9b779b17422d0df92223018b32b4d1fa46e071723d6817e2486d003becc55f0055565b50565b7f00000000000000000000000000000000000000000000000000000000000000006001600160a01b03166391d148547f00000000000000000000000000000000000000000000000000000000000000006001600160a01b031663a217fddf6040518163ffffffff1660e01b8152600401602060405180830381865afa1580156103d5573d5f803e3d5ffd5b505050506040513d601f19601f820116820180604052508101906103f991906105bf565b6040516001600160e01b031960e084901b1681526004810191909152336024820152604401602060405180830381865afa158015610439573d5f803e3d5ffd5b505050506040513d601f19601f8201168201806040525081019061045d91906105d6565b610479576040516282b42960e81b815260040160405180910390fd5b5f80546040516001600160a01b03808516939216917f5f90d712a0af15f5a6f562235036d7264213de74a0dc9698581daa47c52b79d391a35f80546001600160a01b0319166001600160a01b0392909216919091179055565b60405134815233907fe3407208b14fa025330ca187030f118a1c0cdb604aba93ba45c862e6095aee279060200160405180910390a2565b610511610537565b60027f9b779b17422d0df92223018b32b4d1fa46e071723d6817e2486d003becc55f0055565b7f9b779b17422d0df92223018b32b4d1fa46e071723d6817e2486d003becc55f005460020361057957604051633ee5aeb560e01b815260040160405180910390fd5b565b5f6020828403121561058b575f80fd5b5035919050565b5f602082840312156105a2575f80fd5b81356001600160a01b03811681146105b8575f80fd5b9392505050565b5f602082840312156105cf575f80fd5b5051919050565b5f602082840312156105e6575f80fd5b815180151581146105b8575f80fdfea2646970667358221220a61fe852c47a8e40f2268211c6c4bdb07ce5879966ac1a961e839108befa949c64736f6c63430008180033",
  "linkReferences": {},
  "deployedLinkReferences": {}
}