{
  "_format": "hh-sol-artifact-1",
  "contractName": "AchievementSBT",
  "sourceName": "contracts/AchievementSBT.sol",
  "abi": [
    {
      "inputs": [
        {
          "internalType": "address",
          "name": "_roleManager",
          "type": "address"
        }
      ],
      "stateMutability": "nonpayable",
      "type": "constructor"
    },
    {
      "inputs": [],
      "name": "AchievementAlreadyClaimed",
      "type": "error"
    },
    {
      "inputs": [],
      "name": "ContractPaused",
      "type": "error"
    },
    {
      "inputs": [],
      "name": "ECDSAInvalidSignature",
      "type": "error"
    },
    {
      "inputs": [
        {
          "internalType": "uint256",
          "name": "length",
          "type": "uint256"
        }
      ],
      "name": "ECDSAInvalidSignatureLength",
      "type": "error"
    },
    {
      "inputs": [
        {
          "internalType": "bytes32",
          "name": "s",
          "type": "bytes32"
        }
      ],
      "name": "ECDSAInvalidSignatureS",
      "type": "error"
    },
    {
      "inputs": [
        {
          "internalType": "address",
          "name": "sender",
          "type": "address"
        },
        {
          "internalType": "uint256",
          "name": "tokenId",
          "type": "uint256"
        },
        {
          "internalType": "address",
          "name": "owner",
          "type": "address"
        }
      ],
      "name": "ERC721IncorrectOwner",
      "type": "error"
    },
    {
      "inputs": [
        {
          "internalType": "address",
          "name": "operator",
          "type": "address"
        },
        {
          "internalType": "uint256",
          "name": "tokenId",
          "type": "uint256"
        }
      ],
      "name": "ERC721InsufficientApproval",
      "type": "error"
    },
    {
      "inputs": [
        {
          "internalType": "address",
          "name": "approver",
          "type": "address"
        }
      ],
      "name": "ERC721InvalidApprover",
      "type": "error"
    },
    {
      "inputs": [
        {
          "internalType": "address",
          "name": "operator",
          "type": "address"
        }
      ],
      "name": "ERC721InvalidOperator",
      "type": "error"
    },
    {
      "inputs": [
        {
          "internalType": "address",
          "name": "owner",
          "type": "address"
        }
      ],
      "name": "ERC721InvalidOwner",
      "type": "error"
    },
    {
      "inputs": [
        {
          "internalType": "address",
          "name": "receiver",
          "type": "address"
        }
      ],
      "name": "ERC721InvalidReceiver",
      "type": "error"
    },
    {
      "inputs": [
        {
          "internalType": "address",
          "name": "sender",
          "type": "address"
        }
      ],
      "name": "ERC721InvalidSender",
      "type": "error"
    },
    {
      "inputs": [
        {
          "internalType": "uint256",
          "name": "tokenId",
          "type": "uint256"
        }
      ],
      "name": "ERC721NonexistentToken",
      "type": "error"
    },
    {
      "inputs": [],
      "name": "InvalidSignature",
      "type": "error"
    },
    {
      "inputs": [],
      "name": "NonceAlreadyUsed",
      "type": "error"
    },
    {
      "inputs": [],
      "name": "SoulboundToken",
      "type": "error"
    },
    {
      "anonymous": false,
      "inputs": [
        {
          "indexed": true,
          "internalType": "address",
          "name": "owner",
          "type": "address"
        },
        {
          "indexed": true,
          "internalType": "address",
          "name": "approved",
          "type": "address"
        },
        {
          "indexed": true,
          "internalType": "uint256",
          "name": "tokenId",
          "type": "uint256"
        }
      ],
      "name": "Approval",
      "type": "event"
    },
    {
      "anonymous": false,
      "inputs": [
        {
          "indexed": true,
          "internalType": "address",
          "name": "owner",
          "type": "address"
        },
        {
          "indexed": true,
          "internalType": "address",
          "name": "operator",
          "type": "address"
        },
        {
          "indexed": false,
          "internalType": "bool",
          "name": "approved",
          "type": "bool"
        }
      ],
      "name": "ApprovalForAll",
      "type": "event"
    },
    {
      "anonymous": false,
      "inputs": [
        {
          "indexed": true,
          "internalType": "address",
          "name": "user",
          "type": "address"
        },
        {
          "indexed": true,
          "internalType": "uint256",
          "name": "achievementId",
          "type": "uint256"
        },
        {
          "indexed": false,
          "internalType": "uint256",
          "name": "tokenId",
          "type": "uint256"
        }
      ],
      "name": "SBTMinted",
      "type": "event"
    },
    {
      "anonymous": false,
      "inputs": [
        {
          "indexed": true,
          "internalType": "address",
          "name": "from",
          "type": "address"
        },
        {
          "indexed": true,
          "internalType": "address",
          "name": "to",
          "type": "address"
        },
        {
          "indexed": true,
          "internalType": "uint256",
          "name": "tokenId",
          "type": "uint256"
        }
      ],
      "name": "Transfer",
      "type": "event"
    },
    {
      "inputs": [],
      "name": "CLAIM_TYPEHASH",
      "outputs": [
        {
          "internalType": "bytes32",
          "name": "",
          "type": "bytes32"
        }
      ],
      "stateMutability": "view",
      "type": "function"
    },
    {
      "inputs": [],
      "name": "DOMAIN_SEPARATOR",
      "outputs": [
        {
          "internalType": "bytes32",
          "name": "",
          "type": "bytes32"
        }
      ],
      "stateMutability": "view",
      "type": "function"
    },
    {
      "inputs": [
        {
          "internalType": "address",
          "name": "",
          "type": "address"
        },
        {
          "internalType": "uint256",
          "name": "",
          "type": "uint256"
        }
      ],
      "name": "approve",
      "outputs": [],
      "stateMutability": "nonpayable",
      "type": "function"
    },
    {
      "inputs": [
        {
          "internalType": "address",
          "name": "owner",
          "type": "address"
        }
      ],
      "name": "balanceOf",
      "outputs": [
        {
          "internalType": "uint256",
          "name": "",
          "type": "uint256"
        }
      ],
      "stateMutability": "view",
      "type": "function"
    },
    {
      "inputs": [
        {
          "internalType": "uint256",
          "name": "achievementId",
          "type": "uint256"
        },
        {
          "internalType": "uint256",
          "name": "nonce",
          "type": "uint256"
        },
        {
          "internalType": "bytes",
          "name": "signature",
          "type": "bytes"
        }
      ],
      "name": "claimAchievement",
      "outputs": [],
      "stateMutability": "nonpayable",
      "type": "function"
    },
    {
      "inputs": [
        {
          "internalType": "uint256",
          "name": "tokenId",
          "type": "uint256"
        }
      ],
      "name": "getApproved",
      "outputs": [
        {
          "internalType": "address",
          "name": "",
          "type": "address"
        }
      ],
      "stateMutability": "view",
      "type": "function"
    },
    {
      "inputs": [
        {
          "internalType": "address",
          "name": "",
          "type": "address"
        },
        {
          "internalType": "uint256",
          "name": "",
          "type": "uint256"
        }
      ],
      "name": "hasClaimed",
      "outputs": [
        {
          "internalType": "bool",
          "name": "",
          "type": "bool"
        }
      ],
      "stateMutability": "view",
      "type": "function"
    },
    {
      "inputs": [
        {
          "internalType": "address",
          "name": "owner",
          "type": "address"
        },
        {
          "internalType": "address",
          "name": "operator",
          "type": "address"
        }
      ],
      "name": "isApprovedForAll",
      "outputs": [
        {
          "internalType": "bool",
          "name": "",
          "type": "bool"
        }
      ],
      "stateMutability": "view",
      "type": "function"
    },
    {
      "inputs": [],
      "name": "name",
      "outputs": [
        {
          "internalType": "string",
          "name": "",
          "type": "string"
        }
      ],
      "stateMutability": "view",
      "type": "function"
    },
    {
      "inputs": [
        {
          "internalType": "uint256",
          "name": "tokenId",
          "type": "uint256"
        }
      ],
      "name": "ownerOf",
      "outputs": [
        {
          "internalType": "address",
          "name": "",
          "type": "address"
        }
      ],
      "stateMutability": "view",
      "type": "function"
    },
    {
      "inputs": [],
      "name": "roleManager",
      "outputs": [
        {
          "internalType": "contract RoleManager",
          "name": "",
          "type": "address"
        }
      ],
      "stateMutability": "view",
      "type": "function"
    },
    {
      "inputs": [
        {
          "internalType": "address",
          "name": "from",
          "type": "address"
        },
        {
          "internalType": "address",
          "name": "to",
          "type": "address"
        },
        {
          "internalType": "uint256",
          "name": "tokenId",
          "type": "uint256"
        }
      ],
      "name": "safeTransferFrom",
      "outputs": [],
      "stateMutability": "nonpayable",
      "type": "function"
    },
    {
      "inputs": [
        {
          "internalType": "address",
          "name": "from",
          "type": "address"
        },
        {
          "internalType": "address",
          "name": "to",
          "type": "address"
        },
        {
          "internalType": "uint256",
          "name": "tokenId",
          "type": "uint256"
        },
        {
          "internalType": "bytes",
          "name": "data",
          "type": "bytes"
        }
      ],
      "name": "safeTransferFrom",
      "outputs": [],
      "stateMutability": "nonpayable",
      "type": "function"
    },
    {
      "inputs": [
        {
          "internalType": "address",
          "name": "",
          "type": "address"
        },
        {
          "internalType": "bool",
          "name": "",
          "type": "bool"
        }
      ],
      "name": "setApprovalForAll",
      "outputs": [],
      "stateMutability": "nonpayable",
      "type": "function"
    },
    {
      "inputs": [
        {
          "internalType": "bytes4",
          "name": "interfaceId",
          "type": "bytes4"
        }
      ],
      "name": "supportsInterface",
      "outputs": [
        {
          "internalType": "bool",
          "name": "",
          "type": "bool"
        }
      ],
      "stateMutability": "view",
      "type": "function"
    },
    {
      "inputs": [],
      "name": "symbol",
      "outputs": [
        {
          "internalType": "string",
          "name": "",
          "type": "string"
        }
      ],
      "stateMutability": "view",
      "type": "function"
    },
    {
      "inputs": [
        {
          "internalType": "uint256",
          "name": "",
          "type": "uint256"
        }
      ],
      "name": "tokenAchievementIds",
      "outputs": [
        {
          "internalType": "uint256",
          "name": "",
          "type": "uint256"
        }
      ],
      "stateMutability": "view",
      "type": "function"
    },
    {
      "inputs": [
        {
          "internalType": "uint256",
          "name": "tokenId",
          "type": "uint256"
        }
      ],
      "name": "tokenURI",
      "outputs": [
        {
          "internalType": "string",
          "name": "",
          "type": "string"
        }
      ],
      "stateMutability": "view",
      "type": "function"
    },
    {
      "inputs": [
        {
          "internalType": "address",
          "name": "",
          "type": "address"
        },
        {
          "internalType": "address",
          "name": "",
          "type": "address"
        },
        {
          "internalType": "uint256",
          "name": "",
          "type": "uint256"
        }
      ],
      "name": "transferFrom",
      "outputs": [],
      "stateMutability": "nonpayable",
      "type": "function"
    },
    {
      "inputs": [
        {
          "internalType": "uint256",
          "name": "",
          "type": "uint256"
        }
      ],
      "name": "usedNonces",
      "outputs": [
        {
          "internalType": "bool",
          "name": "",
          "type": "bool"
        }
      ],
      "stateMutability": "view",
      "type": "function"
    }
  ],
  "bytecode": "0x60a0604052600160065534801562000015575f80fd5b506040516200191838038062001918833981016040819052620000389162000197565b6040518060400160405280601781526020017f4172636865727920416368696576656d656e74205342540000000000000000008152506040518060400160405280600681526020016510504b54d09560d21b815250815f90816200009d919062000264565b506001620000ac828262000264565b5050506001600160a01b03166080908152604080518082018252600b81526a4172636865727947616d6560a81b6020918201528151808301835260018152603160f81b9082015281517f8b73c3c69bb8fe3d512ecc4cf759cc79239f7b179b0ffacaa9a75d522b39400f818301527f87df0ea057611cc04f2bc8e26e5c43d9181be6cb1d8ad37d175980f683f29a8a818401527fc89efdaa54c0f20c7adf612882df0950f5a951637e0307cdcb4c672f298b8bc6606082015246938101939093523060a0808501919091528251808503909101815260c0909301909152815191012060075562000330565b5f60208284031215620001a8575f80fd5b81516001600160a01b0381168114620001bf575f80fd5b9392505050565b634e487b7160e01b5f52604160045260245ffd5b600181811c90821680620001ef57607f821691505b6020821081036200020e57634e487b7160e01b5f52602260045260245ffd5b50919050565b601f8211156200025f57805f5260205f20601f840160051c810160208510156200023b5750805b601f840160051c820191505b818110156200025c575f815560010162000247565b50505b505050565b81516001600160401b03811115620002805762000280620001c6565b6200029881620002918454620001da565b8462000214565b602080601f831160018114620002ce575f8415620002b65750858301515b5f19600386901b1c1916600185901b17855562000328565b5f85815260208120601f198616915b82811015620002fe57888601518255948401946001909101908401620002dd565b50858210156200031c57878501515f19600388901b60f8161c191681555b505060018460011b0185555b505050505050565b6080516115ba6200035e5f395f818161012f015281816104b80152818161066c015261069b01526115ba5ff3fe608060405234801561000f575f80fd5b5060043610610126575f3560e01c80636b0509b1116100a9578063b069a1311161006e578063b069a1311461029e578063b2931096146102bd578063b88d4fde146102ea578063c87b56dd146102fd578063e985e9c514610310575f80fd5b80636b0509b11461023b57806370a082311461026257806382997c391461027557806395d89b4114610288578063a22cb46514610290575f80fd5b806323b872dd116100ef57806323b872dd146101ce5780633644e515146101dc57806342842e0e146101f35780636352211e146102065780636717e41c14610219575f80fd5b8062435da51461012a57806301ffc9a71461016e57806306fdde0314610191578063081812fc146101a6578063095ea7b3146101b9575b5f80fd5b6101517f000000000000000000000000000000000000000000000000000000000000000081565b6040516001600160a01b0390911681526020015b60405180910390f35b61018161017c366004611162565b610323565b6040519015158152602001610165565b610199610374565b60405161016591906111ca565b6101516101b43660046111dc565b610403565b6101cc6101c736600461120e565b61042a565b005b6101cc6101c7366004611236565b6101e560075481565b604051908152602001610165565b6101cc610201366004611236565b610443565b6101516102143660046111dc565b610462565b6101816102273660046111dc565b60086020525f908152604090205460ff1681565b6101e57fce20c87882b3f17d7c55c031bbb5ec39a51fee317d47a805587e43b0d1d8181781565b6101e561027036600461126f565b61046c565b6101cc610283366004611288565b6104b6565b61019961084d565b6101cc6101c736600461130e565b6101e56102ac3660046111dc565b600a6020525f908152604090205481565b6101816102cb36600461120e565b600960209081525f928352604080842090915290825290205460ff1681565b6101cc6102f8366004611357565b61085c565b61019961030b3660046111dc565b61087a565b61018161031e36600461142c565b6108eb565b5f6001600160e01b031982166380ac58cd60e01b148061035357506001600160e01b03198216635b5e139f60e01b145b8061036e57506301ffc9a760e01b6001600160e01b03198316145b92915050565b60605f80546103829061145d565b80601f01602080910402602001604051908101604052809291908181526020018280546103ae9061145d565b80156103f95780601f106103d0576101008083540402835291602001916103f9565b820191905f5260205f20905b8154815290600101906020018083116103dc57829003601f168201915b5050505050905090565b5f61040d82610918565b505f828152600460205260409020546001600160a01b031661036e565b604051636e10574960e01b815260040160405180910390fd5b61045d83838360405180602001604052805f81525061085c565b505050565b5f61036e82610918565b5f6001600160a01b03821661049b576040516322718ad960e21b81525f60048201526024015b60405180910390fd5b506001600160a01b03165f9081526003602052604090205490565b7f00000000000000000000000000000000000000000000000000000000000000006001600160a01b0316635c975abb6040518163ffffffff1660e01b8152600401602060405180830381865afa158015610512573d5f803e3d5ffd5b505050506040513d601f19601f820116820180604052508101906105369190611495565b156105545760405163ab35696f60e01b815260040160405180910390fd5b5f8381526008602052604090205460ff161561058257604051623f613760e71b815260040160405180910390fd5b335f90815260096020908152604080832087845290915290205460ff16156105bd57604051630b54d17d60e21b815260040160405180910390fd5b604080517fce20c87882b3f17d7c55c031bbb5ec39a51fee317d47a805587e43b0d1d818176020820152339181019190915260608101859052608081018490525f9060a0016040516020818303038152906040528051906020012090505f61062482610950565b90505f61066885858080601f0160208091040260200160405190810160405280939291908181526020018383808284375f9201919091525086939250506109779050565b90507f00000000000000000000000000000000000000000000000000000000000000006001600160a01b03166391d148547f00000000000000000000000000000000000000000000000000000000000000006001600160a01b031663a1ebf35d6040518163ffffffff1660e01b8152600401602060405180830381865afa1580156106f5573d5f803e3d5ffd5b505050506040513d601f19601f8201168201806040525081019061071991906114b0565b6040516001600160e01b031960e084901b16815260048101919091526001600160a01b0384166024820152604401602060405180830381865afa158015610762573d5f803e3d5ffd5b505050506040513d601f19601f820116820180604052508101906107869190611495565b6107a357604051638baa579f60e01b815260040160405180910390fd5b5f8681526008602090815260408083208054600160ff199182168117909255338552600984528285208c865290935290832080549092161790556006805490826107ec836114c7565b909155505f818152600a60205260409020899055905061080c338261099f565b604051818152889033907f41609a6dac50ea062ed5a87fd1db5de6b5abe79c0246ab99f48011f8e2a76dad9060200160405180910390a35050505050505050565b6060600180546103829061145d565b61086784848461042a565b61087433858585856109bc565b50505050565b606061088582610918565b505f61089b60408051602081019091525f815290565b90505f8151116108b95760405180602001604052805f8152506108e4565b806108c384610ae4565b6040516020016108d49291906114eb565b6040516020818303038152906040525b9392505050565b6001600160a01b039182165f90815260056020908152604080832093909416825291909152205460ff1690565b5f818152600260205260408120546001600160a01b03168061036e57604051637e27328960e01b815260048101849052602401610492565b5f61036e6007548360405161190160f01b8152600281019290925260228201526042902090565b5f805f806109858686610b74565b9250925092506109958282610bbd565b5090949350505050565b6109b8828260405180602001604052805f815250610c75565b5050565b6001600160a01b0383163b15610add57604051630a85bd0160e11b81526001600160a01b0384169063150b7a02906109fe908890889087908790600401611519565b6020604051808303815f875af1925050508015610a38575060408051601f3d908101601f19168201909252610a3591810190611555565b60015b610a9f573d808015610a65576040519150601f19603f3d011682016040523d82523d5f602084013e610a6a565b606091505b5080515f03610a9757604051633250574960e11b81526001600160a01b0385166004820152602401610492565b805160208201fd5b6001600160e01b03198116630a85bd0160e11b14610adb57604051633250574960e11b81526001600160a01b0385166004820152602401610492565b505b5050505050565b60605f610af083610c8c565b60010190505f8167ffffffffffffffff811115610b0f57610b0f611343565b6040519080825280601f01601f191660200182016040528015610b39576020820181803683370190505b5090508181016020015b5f19016f181899199a1a9b1b9c1cb0b131b232b360811b600a86061a8153600a8504945084610b4357509392505050565b5f805f8351604103610bab576020840151604085015160608601515f1a610b9d88828585610d63565b955095509550505050610bb6565b505081515f91506002905b9250925092565b5f826003811115610bd057610bd0611570565b03610bd9575050565b6001826003811115610bed57610bed611570565b03610c0b5760405163f645eedf60e01b815260040160405180910390fd5b6002826003811115610c1f57610c1f611570565b03610c405760405163fce698f760e01b815260048101829052602401610492565b6003826003811115610c5457610c54611570565b036109b8576040516335e2f38360e21b815260048101829052602401610492565b610c7f8383610e2b565b61045d335f8585856109bc565b5f8072184f03e93ff9f4daa797ed6e38ed64bf6a1f0160401b8310610cca5772184f03e93ff9f4daa797ed6e38ed64bf6a1f0160401b830492506040015b6d04ee2d6d415b85acef81000000008310610cf6576d04ee2d6d415b85acef8100000000830492506020015b662386f26fc100008310610d1457662386f26fc10000830492506010015b6305f5e1008310610d2c576305f5e100830492506008015b6127108310610d4057612710830492506004015b60648310610d52576064830492506002015b600a831061036e5760010192915050565b5f80807f7fffffffffffffffffffffffffffffff5d576e7357a4501ddfe92f46681b20a0841115610d9c57505f91506003905082610e21565b604080515f808252602082018084528a905260ff891692820192909252606081018790526080810186905260019060a0016020604051602081039080840390855afa158015610ded573d5f803e3d5ffd5b5050604051601f1901519150506001600160a01b038116610e1857505f925060019150829050610e21565b92505f91508190505b9450945094915050565b6001600160a01b038216610e5457604051633250574960e11b81525f6004820152602401610492565b5f610e6083835f610e8c565b90506001600160a01b0381161561045d576040516339e3563760e11b81525f6004820152602401610492565b5f828152600260205260408120546001600160a01b0390811690831615610eb857610eb8818486610f7e565b6001600160a01b03811615610ef257610ed35f855f80610fe2565b6001600160a01b0381165f90815260036020526040902080545f190190555b6001600160a01b03851615610f20576001600160a01b0385165f908152600360205260409020805460010190555b5f8481526002602052604080822080546001600160a01b0319166001600160a01b0389811691821790925591518793918516917fddf252ad1be2c89b69c2b068fc378daa952ba7f163c4a11628f55a4df523b3ef91a4949350505050565b610f898383836110e6565b61045d576001600160a01b038316610fb757604051637e27328960e01b815260048101829052602401610492565b60405163177e802f60e01b81526001600160a01b038316600482015260248101829052604401610492565b8080610ff657506001600160a01b03821615155b156110b7575f61100584610918565b90506001600160a01b038316158015906110315750826001600160a01b0316816001600160a01b031614155b8015611044575061104281846108eb565b155b1561106d5760405163a9fbf51f60e01b81526001600160a01b0384166004820152602401610492565b81156110b55783856001600160a01b0316826001600160a01b03167f8c5be1e5ebec7d5bd14f71427d1e84f3dd0314c0f7b2291e5b200ac8c7c3b92560405160405180910390a45b505b50505f90815260046020526040902080546001600160a01b0319166001600160a01b0392909216919091179055565b5f6001600160a01b038316158015906111425750826001600160a01b0316846001600160a01b0316148061111f575061111f84846108eb565b8061114257505f828152600460205260409020546001600160a01b038481169116145b949350505050565b6001600160e01b03198116811461115f575f80fd5b50565b5f60208284031215611172575f80fd5b81356108e48161114a565b5f5b8381101561119757818101518382015260200161117f565b50505f910152565b5f81518084526111b681602086016020860161117d565b601f01601f19169290920160200192915050565b602081525f6108e4602083018461119f565b5f602082840312156111ec575f80fd5b5035919050565b80356001600160a01b0381168114611209575f80fd5b919050565b5f806040838503121561121f575f80fd5b611228836111f3565b946020939093013593505050565b5f805f60608486031215611248575f80fd5b611251846111f3565b925061125f602085016111f3565b9150604084013590509250925092565b5f6020828403121561127f575f80fd5b6108e4826111f3565b5f805f806060858703121561129b575f80fd5b8435935060208501359250604085013567ffffffffffffffff808211156112c0575f80fd5b818701915087601f8301126112d3575f80fd5b8135818111156112e1575f80fd5b8860208285010111156112f2575f80fd5b95989497505060200194505050565b801515811461115f575f80fd5b5f806040838503121561131f575f80fd5b611328836111f3565b9150602083013561133881611301565b809150509250929050565b634e487b7160e01b5f52604160045260245ffd5b5f805f806080858703121561136a575f80fd5b611373856111f3565b9350611381602086016111f3565b925060408501359150606085013567ffffffffffffffff808211156113a4575f80fd5b818701915087601f8301126113b7575f80fd5b8135818111156113c9576113c9611343565b604051601f8201601f19908116603f011681019083821181831017156113f1576113f1611343565b816040528281528a6020848701011115611409575f80fd5b826020860160208301375f60208483010152809550505050505092959194509250565b5f806040838503121561143d575f80fd5b611446836111f3565b9150611454602084016111f3565b90509250929050565b600181811c9082168061147157607f821691505b60208210810361148f57634e487b7160e01b5f52602260045260245ffd5b50919050565b5f602082840312156114a5575f80fd5b81516108e481611301565b5f602082840312156114c0575f80fd5b5051919050565b5f600182016114e457634e487b7160e01b5f52601160045260245ffd5b5060010190565b5f83516114fc81846020880161117d565b83519083019061151081836020880161117d565b01949350505050565b6001600160a01b03858116825284166020820152604081018390526080606082018190525f9061154b9083018461119f565b9695505050505050565b5f60208284031215611565575f80fd5b81516108e48161114a565b634e487b7160e01b5f52602160045260245ffdfea264697066735822122070b6bcf674891809f06dfb6e69caee1f6174452e1161684aa0420fb8c2e108ea64736f6c63430008180033",
  "linkReferences": {},
  "deployedLinkReferences": {}
}